:020000040800F2
:10000000D00900205D0200086502000867020008B0
:10001000690200086B0200086D0200080000000081
:100020000000000000000000000000006F02000857
:100030007102000800000000730200087502000849
:1000400077020008770200087702000877020008AC
:10005000770200087702000877020008770200089C
:10006000770200087702000877020008770200088C
:10007000770200087702000877020008770200087C
:10008000770200087702000877020008770200086C
:10009000770200087702000877020008770200085C
:1000A000770200087702000877020008770200084C
:1000B000D11C0008811D00087702000877020008A3
:1000C000770200087702000877020008770200082C
:1000D00077020008D12100087702000877020008A3
:1000E000770200087702000877020008770200080C
:1000F00077020008770200087702000877020008FC
:100100007702000877020008A51E000877020008A1
:1001100077020008770200087702000877020008DB
:1001200077020008770200087702000877020008CB
:1001300000F002F800F069F80AA090E8000C824490
:100140008344AAF10107DA4501D100F05EF8AFF26D
:10015000090EBAE80F0013F0010F18BFFB1A43F0A5
:1001600001031847F8310000183200000A444FF02C
:10017000000C10F8013B13F0070408BF10F8014B06
:100180001D1108BF10F8015B641E05D010F8016B4B
:10019000641E01F8016BF9D113F0080F1EBF10F8AF
:1001A000014BAD1C0C1B09D16D1E58BF01F801CBD2
:1001B000FAD505E014F8016B01F8016B6D1EF9D555
:1001C0009142D6D37047000000230024002500266A
:1001D000103A28BF78C1FBD8520728BF30C148BFAA
:1001E0000B607047662903F06C80002070471FB5D4
:1001F00000F0ABF800F0D6FA04000020002102F075
:100200004DF9E0601FBD10B510BD00F0E3FB1146D5
:10021000FFF7EDFF02F0A0F800F001FC03B4FFF7D8
:10022000F2FF03BC02F02AF80B49D1F800C04A687B
:100230005CF8043B1068184442F8040B8C4528BF56
:10024000A1F1DC0C8A4228BFA1F1DC02C1F800C098
:100250004A6020F00040704768030020094880474A
:1002600009480047FEE7FEE7FEE7FEE7FEE7FEE798
:10027000FEE7FEE7FEE7FEE704480549054A064BB0
:1002800070470000711C000831010008D0030020F5
:10029000D0090020D0050020D005002070470000C4
:1002A0000FB4044910B503AA029800F069FA10BC13
:1002B0005DF814FBBC0100202DE9F0410E46044618
:1002C000002020622046E168884730B3252805D009
:1002D000D4E901219047206A401CF2E7E1682046FA
:1002E00000278847050018D0A5F14100192802D839
:1002F00020354FF400673246294620462760FFF735
:1003000071FF40B1012804D0F61D26F0070608361B
:10031000D8E7361DD6E72846DAE7206ABDE8F0813F
:100320000B4910B5A1F17C020A4CC2E93712372102
:1003300006E000EB104342F82130074B00FB03407E
:100340000B1EA1F10101F4DC10BD0120E8E7000063
:1003500008030020E119D666CD0D010070477047F3
:100360007047704770472DE9FF4F0C461E464FF00F
:10037000FF378BB0D2E90001DDF860800A908A4631
:10038000C1F30A5505B93D46002108464FF000006B
:10039000BAF1000F00F4400005DA00EB80004FF4E2
:1003A000400101EA50004FEA9059B9F1010F00DD18
:1003B000B9460A9850EA4A000ED044F61050A5F209
:1003C000FF3545432F14B8F1000F1ED07542291E8A
:1003D0001EDDC9F100021CE0B8F1010F4FF0000072
:1003E00001D0302103E0F24305E02154401CB0422B
:1003F000FBDB30460022002121540B99C1F8088014
:10040000C1E900200FB0BDE8F08FBD1B6D1CDEE719
:100410004A4600DA694206A800F066FA06AB93E89D
:10042000070003AB83E8070050460A9900F03EFB43
:100430008DE80700A0F500501F3800900398002DAC
:1004400009DD42F21F014A46084403A903906846A9
:1004500000F09DFD08E0A0F500504A461F3803A9B2
:100460000390684600F0A7FD8DE807000004000C2B
:1004700003D04FF0FF30410800E01046B8F1000F04
:1004800003D00022009215461EE0751E05D400F030
:100490008DF9303262556D1EF9D5B34601220843FD
:1004A00002D000227F1C04E02078302801D10022F5
:1004B0007F1E002A099786D01DE0112D07DA00F073
:1004C00075F9303262556D1C50EA0102F5D10843CE
:1004D00002D00098C8B10EE00021681E05E0235C40
:1004E000625C63542254401E491C8142F7DBAB46D8
:1004F000A81B401E0990002004F80B000B98099AD5
:10050000C0F80880C0E9002B7CE711264FF00008F6
:1005100059E72DE9F04F88460446D21D22F0070125
:1005200091B0D1E90001CDE90A0101F093FE024644
:100530000B98C00F01D02D2007E02068810701D55E
:100540002B2002E0202101EAC000032A099001D0FB
:10055000072A05DB03464146204600F085F90BE1FA
:100560002078800601D5E06900E00620B8F1650F2B
:10057000814606D0B8F1660F18D0B8F1670F70D178
:1005800031E00020B9F1110F009001DB112301E0EF
:1005900009F101030AAA01A90CA8FFF7E4FEDDE9AD
:1005A0000C70002609F10105834647E001204B4607
:1005B00000904FF000470AAA01A90CA8FFF7D3FE4C
:1005C000DDE90DB00C995D46002610B909F1010076
:1005D0000D18B9EB050003D4C0F1FF3609F1010590
:1005E000A5EB09002BE0B9F1010F01DA4FF0010989
:1005F0000020B9F1110F0090484601DD112300E001
:1006000003460AAA01A90CA8FFF7ADFEDDE90C70AC
:100610004D4600268346207800070AD4AB4500DA11
:100620005D4601A8012D04DD411911F8011C302996
:1006300007D04F4502DA17F1040F04DA0120824691
:100640000FE06D1EEEE7002F02DCED1B3E4403E0E1
:10065000781CA84200DD7D1CB81B00F1010A4FF098
:1006600000472078000703D4AA4501DB4FF0FF3A8A
:100670000021B7F1004F0DF143088DF8431024D04D
:1006800002202B23002F01DA7F422D230A21021E94
:10069000A0F1010000DC5FB197FBF1FC97FBF1F2E8
:1006A00001FB1C7C17460CF1300C08F801CDEEE77D
:1006B000A8F1010003702188090501D5452100E05A
:1006C0006521A0F1010800F8011C09980FA9A1EB10
:1006D0000807FF1D00B10120411901EBEA70A16973
:1006E0003844081A401EA0612078C00602D4204673
:1006F000AFF30080099828B1D4E901219047206A1E
:10070000401C20622078C00622D52046AFF300802E
:100710001EE0002E04DBB34502DD01A8805D00E091
:100720003020D4E901219047206A401C2062761CC9
:10073000AAF101005FEA000A0AD100F033F8C068AC
:100740000168405CD4E901219047206A401C206286
:10075000281EA5F10105DCDC07E0D4E9012118F829
:10076000010B9047206A401C2062381EA7F1010748
:10077000F3DC2046AFF30080032011B043E6000015
:10078000074B70B50D467B4400F05BF804462846E5
:1007900000F018F910B14FF0FF3070BD204670BD69
:1007A000B31B0000004870479003002030B5B0F143
:1007B0000A024FEA900E71F100034EEA817EB0EB1F
:1007C0000E0061EB91014FEA101E4EEA017E10EB24
:1007D0000E0041EB11114FEA102E4EEA016E10EBA4
:1007E0000E0041EB11214FEA104E4EEA014E10EB84
:1007F0000E0041EB1141401841F100014FEAD000D9
:1008000040EA41704FEAD10110EB80054FEA8104C4
:1008100044EA907444EB01046D1944EB0404521B48
:10082000A3414FF0000348BF0A3200D530BD401C41
:1008300041F1000130BD000001694A1C02610878E5
:10084000704700B58FB0CDE9013100210591054910
:100850007944CDE9031011466846FFF72DFD0FB02E
:1008600000BD0000E5FFFFFF2DE9F0411F460446F3
:1008700003260168072A01F4006004DB08B116A50D
:1008800005E016A503E008B115A500E015A521F0C7
:1008900010002060A069C01EA0610FB1401EA061C1
:1008A0002046AFF300804FB1D4E90121384690478C
:1008B000206A401C2062C01C206206E0206AFAE721
:1008C000D4E9012115F8010B9047761EF8D2204695
:1008D000AFF30080BDE8F0814E414E006E616E00C6
:1008E000494E4600696E66002DE9F047814616467E
:1008F0008AB0334878440DC88DE80D0030487844FC
:10090000801C03AC0DC884E80D0041F69B30084400
:10091000372190FBF1F290FBF1F5A5F1800501FB89
:1009200012041B3C02D56442012000E00020DFF8E5
:1009300090A080460027FA44AAF1BE0A0DE0E00725
:1009400009D03246684607EB47010AEB810100F007
:1009500032FB8DE8070064107F1C002CEFD1184F8C
:100960007F44AC3F18E0E80714D007EB04100DF10A
:10097000180A90E80E008AE80E00C068F04201D123
:1009800098190890324606A903A800F014FB03AB9F
:1009900083E807006D10641C002DE4D132466946DF
:1009A000B8F1000F03A802D000F0F1FA01E000F066
:1009B00002FBC9E90001C9F808200AB0BDE8F087C8
:1009C0004C2A0000007B00F0800070470048704710
:1009D000700300207546FFF7F9FFAE460500694633
:1009E000534620F00700854618B020B5FFF744FCB9
:1009F000BDE820404FF000064FF000074FF0000820
:100A00004FF0000B21F00701AC46ACE8C009ACE8A0
:100A1000C009ACE8C009ACE8C0098D46704704467F
:100A2000AFF300802046FFF7F9FB00004FF0013CD8
:100A300050F8042B51F8043B9A4221D1A2EB0C034D
:100A4000934313EACC1317D150F8042B51F8043B0D
:100A50009A4215D1A2EB0C03934313EACC130BD1AA
:100A600050F8042B51F8043B9A4209D1A2EB0C0335
:100A7000934313EACC13DBD04FF00000704700BF64
:100A8000D01A01BAB1FA81F101F0180122FA01F08D
:100A9000CB40C1F12001DBB2C0B2C01A2CFA01F385
:100AA000D11A914311EAC311E6D170475FEA400CB5
:100AB00008BF91F0000F4FEA8C234FEAC12243EAAE
:100AC00051514FEA1C5018BF00F5F0404FEA30007A
:100AD00018BF41F000415FEA6C5C00F02980BCF176
:100AE000FF3F08BF40F080407047130C06BF120460
:100AF0004FF0100C4FF0000C130E04BF12020CF15B
:100B0000080C130F04BF12010CF1040C930F04BF67
:100B100092000CF1020CD30F04BF52000CF1010C37
:100B200011464FF00002A0F11F00A0EB0C0070472F
:100B300011F0004F08BF704731F000413FF4D5AFCE
:100B40000B0C06BF09044FF0100C4FF0000C0B0EFD
:100B500004BF09020CF1080C0B0F04BF09010CF1D2
:100B6000040C8B0F04BF89000CF1020CCB0F04BFE7
:100B700049000CF1010CCCF12003A0EB0C0022FA8F
:100B800003F302FA0CF241EA030100F1010070479D
:100B900020F07F4C80EA030023F07F47ACEB070393
:100BA00003F57C5300F0004003F1FF032DE9804979
:100BB0004FEA154B09B44FEA144325EA0B4E24EAD9
:100BC00003480FF2042606EB132749083E785FEA34
:100BD000320203FB0667C7F5000707FB06F64FEA7C
:100BE00054374FEAD64606F1020607FB066CCCF1F5
:100BF000005C4FEA1C472CEA074C07FB06F40CFB91
:100C000006F504EB15464FEA961634BF00204FF068
:100C100000404FEAD13706FB07FC4FEA1C4C0CFBA7
:100C20000BF7D21B03FB0CF761EB07010CFB0EF774
:100C3000B0EB074072EB17420CFB08F734BFA2EB96
:100C40000742B2EB074261EB17414FEA0C444FEA0F
:100C5000910706FB07FC4FEA1C4C0CFB0BF7B0EBB3
:100C6000C74072EB573203FB0CF734BFA2EBC7420D
:100C7000B2EBC74261EB57310CFB0EF7B0EBC7008C
:100C800072EB57720CFB08F734BFA2EBC702B2EB52
:100C9000C70261EB5771039F4FEA816141EA9211EC
:100CA00004EBCC044FEAD1374FEA826206FB07FC23
:100CB00042EA90124FEA80604FEA1C4C0CFB0BF7A3
:100CC000D21B03FB0CF761EB07010CFB0EF7B0EB3B
:100CD000074072EB17420CFB08F734BFA2EB074248
:100CE000B2EB074261EB17414FEA8C554FEA91078F
:100CF00004EB9C2406FB07FC4FEA1C4C0CFB0BF797
:100D0000B0EBC74072EB573203FB0CF734BFA2EBDA
:100D1000C742B2EBC74261EB57310CFB0EF7B0EBA9
:100D2000C70072EB57720CFB08F734BFA2EBC70287
:100D3000B2EBC70261EB577115EB4C254FEA8161AD
:100D400041EA92114FEA82624FEAD13742EA9012A9
:100D500006FB07FC44F100044FEA80604FEA1C4C9C
:100D60000CFB0BF7D21B03FB0CF761EB07010CFB31
:100D70000EF7B0EB074072EB17420CFB08F734BFDD
:100D8000A2EB0742B2EB074261EB174115EB1C15D2
:100D90004FEA813141EA92414FEA823242EA90427F
:100DA0004FEA80304FEA0C7644F1000448EA0343EE
:100DB0004EEA0B484FF0000EB2EB080C71EB030744
:100DC00024BF624639464EEB0E0E4FF0000B001862
:100DD000524149414BEB0B0BB2EB080C71EB030793
:100DE0007BF1000B24BF624639464EEB0E0E4FF0EE
:100DF000000B0018524149414BEB0B0BB2EB080CB6
:100E000071EB03077BF1000B24BF624639464EEBC2
:100E10000E0E51EA020718BF46F0010616EB0E76D9
:100E200055F1000254F1000103D5BDE88901BDE888
:100E30000088BDE88901BDE80048B619524141EB80
:100E40000101A3F10103704780807F7E7D7C7B7A66
:100E50007978777676757473727171706F6E6E6D66
:100E60006C6C6B6A6A69686867666665646463630C
:100E700062616160605F5F5E5E5D5D5C5C5B5B5A92
:100E80005A595958585757565655555554545353FF
:100E900052525251515050504F4F4F4E4E4D4D4D5A
:100EA0004C4C4C4B4B4B4A4A4A49494948484847A5
:100EB00047474746464645454544444444434343E3
:100EC0004342424242414141002B26D4770021D087
:100ED0001CB54FEA370703B44FF010004FF0100174
:100EE0004FF000000FBCBDE810400BF1010BBBF14F
:100EF000010F08BF5FEA170722BF12F1010211F1CB
:100F000001014FF0004143F1000300F0004043EACB
:100F100000007047F9D35708DAE746EA064613F1AE
:100F2000400F4FEA16461FDD13F1200FDFBF1643B7
:100F30000A46002120335B42C8D0C3F1200746EAAD
:100F4000064602FA07F74FEA164646EA0706C3F1D5
:100F5000200722FA03F201FA07F721FA03F14FF012
:100F6000000342EA0702B1E746EA020646EA0646FD
:100F70004FEA164646EA0106BCBF46EA0646360C6C
:100F80004FF000034FF000024FF000019EE72DE903
:100F9000C048934630B491E8380007C831EA400CA5
:100FA00048BF34EA430C03D5FFF7F2FDFFF78CFF8F
:100FB000F0BCBDE800882DE9C048934630B491E804
:100FC000380007C810F0804F08BF13F0804F03D1DE
:100FD00000F005F8FFF778FFF0BCBDE8008820F0CE
:100FE0007F4780EA030023F07F4C07EB0C03A3F557
:100FF0007C5300F00040A3F1FE0392F0000F00F0DC
:10100000B38095F0000F00F077802DE901494FEA99
:1010100011404FEA144621EA004800FB06FC24EA8E
:10102000064708FB06F607FB08F800FB07F718EB76
:1010300006484CEB164C4FEA124B18EB07484FEAA8
:1010400015464CEB174022EA0B4E0BFB06FC25EA3B
:1010500006470EFB06F607FB0EFE0BFB07F71EEB23
:10106000064E4CEB164C4FF000061EEB074E4CEBB9
:10107000174B18EB0B0840F1000018EB0E0B58EB68
:10108000000840F100008F1A4FF000013CBFC94337
:10109000661B14BFB5EB040C00213CBFC943F61B13
:1010A0004FEA17444EEA8E0E27EA04454FEA1C47E2
:1010B00004FB07622CEA074C05FB07F70CFB05F65F
:1010C00004FB0CFC16EB074642EB174216EB0C46F2
:1010D00042EB1C421BEB060658EB0202414146EA7A
:1010E0009E0601D5BDE80189B619524141EB0101C7
:1010F000A3F10103BDE801894FEA14454FEA114706
:1011000024EA054621EA074C05FB07F406FB07F72E
:101110000CFB06F105FB0CFC11EB074144EB1744FB
:101120004FEA124711EB0C4144EB1C4422EA074CF6
:1011300005FB07F206FB07F70CFB06F605FB0CFCAC
:1011400016EB074642EB174216EB0C4642EB1C45EA
:101150006A1854F1000148BF7047B619524141EB7B
:101160000101A3F10103704795F0000F37D04FEA5A
:1011700011424FEA144721EA024624EA074C02FBD7
:1011800007F106FB07F70CFB06F402FB0CFC14EB63
:10119000074441EB17414FEA154714EB0C4441EB70
:1011A0001C4125EA074C02FB07F506FB07F70CFB81
:1011B00006F602FB0CFC16EB074645EB174516EB53
:1011C0000C4645EB1C42121951F1000148BF704713
:1011D000B619524141EB0101A3F1010370474FEAF7
:1011E00014454FEA114724EA054621EA074C05FB5E
:1011F00007F106FB07F70CFB06F24FF0000605FBB4
:101200000CFC12EB074241EB174112EB0C4251EB85
:101210001C4148BF7047921841EB0101A3F1010343
:10122000704700000A48806940F00400084988615E
:101230000848006820F470600649086008460068A5
:1012400040F44070086000200349086070470000C7
:1012500000100240000801408801214200B5012031
:101260000749086000F0C4F940F6B83005494880E5
:1012700005490880034988800349091D088000BD8D
:1012800088012142B20100203408004000B500204E
:101290000949086009490870A220487000F0D0F997
:1012A000002006494880064908800449888004498E
:1012B000091D088000BD000088012142B201002004
:1012C0003408004010B500F0E3FB4F494870084671
:1012D000407800B910BD4C48407868282FD006DC13
:1012E00018287CD0302867D0422813D113E09828E2
:1012F00039D0A22802D0B028F7D14BE001204349D1
:101300000860642000F0DEFF00204149C1F8880138
:101310003D49087075E03C48007800B171E001205B
:101320003A490860C82000F0CDFF00203849C1F8D4
:101330008801FFF793FF01203349087061E03248CC
:10134000007800B15DE0012030490860C82000F05D
:10135000B9FF00202E49C1F8880106202A490870EB
:1013600000F0DCFA4DE02848007800B149E00120A7
:1013700026490860C82000F0A5FF00202449C1F8D4
:10138000880107202049087022A0FEF789FF00F09D
:1013900045F836E01C48007800B132E001201B49D6
:1013A0000860C82000F08EFF00201949C1F88801AC
:1013B00008201549087024E01348007800B120E0A7
:1013C000012012490860C82000F07CFF002010496D
:1013D000C1F8880109200C49087012E0FFE70A48AB
:1013E000007800B10DE0012008490860C82000F035
:1013F00069FF00200649C1F888010A2002490870E7
:1014000000BF00BF00BF65E7B20100208801214294
:10141000000021423132330D0D0A00002DE9F04168
:1014200040F6B830444948804449088042498880A1
:101430004249091D08807EE000F02AFB3E494870C1
:1014400008464078A22805D100200870FFF71EFF4B
:10145000BDE8F081FEF7E8FE074600EBD7704010CC
:10146000A7EB4006012036490860142000F048FF31
:1014700000203449C1F8B4013348008800F400402A
:10148000002858D03148008801F041FA04460D4642
:101490002D4909888904880801F022FA0746224666
:1014A0002B4601F011F804460D460022284B204639
:1014B000294601F0BDF804460D460022254B204682
:1014C000294601F073FA04460D4622462B4622A017
:1014D000FEF7E6FE00201C4908800022214B204632
:1014E000294601F027FA21D841F268001349088003
:1014F000091D088000F054F8642000F0E3FE2EB1CE
:1015000005200D49087000F073F804E004200A4932
:10151000087000F059F84FF4FA7000F0D3FE40F66E
:10152000B83006490880091D088004E002200249FD
:10153000087000F071F87FE7B20100203408004025
:10154000B481214200802142B0010020AE01002080
:1015500080842E41009AD040256620636D200D0ABC
:1015600000000000000034400A48806940F0080094
:10157000084988610848006820F47000064908603E
:101580000846006840F440100860002003490860E5
:101590007047000000100240040C0140B481214259
:1015A00000200749086001200649C1F8A801002071
:1015B00003490831086001200249C1F8B0017047B1
:1015C000A4812142008021420020074908600120B7
:1015D0000649C1F8A8010449083108600020034900
:1015E000C1F8B00170470000A4812142008021426F
:1015F00001200749086000200649C1F8A8010449F4
:101600000831086001200349C1F8B00170470000AB
:10161000A481214200802142012007490860002066
:101620000649C1F8A80101200349083108600020DB
:101630000249C1F8B0017047A481214200802142D3
:101640000020064908600649C1F8A801034908318D
:1016500008600349C1F8B00170470000A48121422D
:101660000080214201464906084A926942F001027F
:10167000064B9A61064A526822F0E062044B5A60B7
:101680001A4652680A435A60704700000010024030
:101690000000014010B50220FFF7E4FF37488069E1
:1016A00040F00400354988610846806940F0080030
:1016B00088610846806940F0100088613048006801
:1016C000C0F30B002E490860084600682D49084306
:1016D0002B490860081D00682B4908402849091D4E
:1016E000086008460068294908432549091D086023
:1016F00027480068274908402549086008460068CF
:1017000025490843224908602448006820F07F40AA
:10171000224908600846006840F04C5008600846BE
:10172000406820F0FF0048600846406840F0330001
:10173000486001201A490860091F086018490C39DF
:101740000860091F086017490860091D0860091D25
:101750000860091D086014490860091D0860091D1A
:101760000860091D0860091D0860091D08600E4910
:10177000283108600D49C1F8B80110BD00100240C1
:101780000008014000303333F0FF0FF00300300356
:10179000000C0140000FF0FF333003000010014047
:1017A00090812142980122428C0121420000214275
:1017B00010B5002100BF1BE000F001024AB9002271
:1017C0000D4B53F821300D4C04EB8303C3F88021FB
:1017D00008E00122084B53F82130084C04EB830346
:1017E000C3F88021024600EBD273C3F34700491CC3
:1017F0000829E1DB10BD00000C00002000002142A0
:1018000000B5002015490861C86014204861002017
:101810008861C8610846006840F001000860084619
:1018200040680F4908400D494860084600680D4966
:1018300008400A4908600846006820F480200860D3
:101840000846406820F4FE004860002088600021BF
:101850004FF0006000F058F800BD0000001002409A
:101860000000FFF8FFFFF6FE2DE9F041074688462D
:1018700014461D46284600F033F8C5F1040007FA67
:1018800000F60F20284100EA0800064306F00F0684
:10189000E21704EBD2625211920002F1E022D2F878
:1018A00000212146E31704EBD3635B11A4EB431C37
:1018B000012303FA0CF31A432046E31704EBD36326
:1018C0005B119B0003F1E023C3F800210348005D96
:1018D00040EA061001490855BDE8F08100E400E047
:1018E0000146072323EA01021202054B18684FF64E
:1018F000FF031840034B18431043014B1860704717
:101900000CED00E00000FA05024A0A400243024BD7
:101910001A60704780FFFF1F08ED00E010B54AE035
:1019200000F0B6F8244948704FF4616048802349BC
:101930000880214988802149091D08801E48407877
:10194000A22822D004DC222813D062282CD104E063
:10195000A82808D0C22827D111E002201649087013
:10196000FFF75AFE26E0032013490870FFF718FE20
:1019700020E0042010490870FFF726FE1AE0052039
:101980000D490870FFF734FE14E001200C4908608F
:10199000642000F097FC00200A49C1F8880106493C
:1019A0000870FFF773FC10BD062003490870FFF7AD
:1019B00047FE00BF00BFB3E7B2010020340800407B
:1019C000880121420000214210B52E48C06940F034
:1019D00008002C49C8610846806940F0040088610D
:1019E0002948006820F0F000274908600846006890
:1019F00040F08000086024480C30006840F002008D
:101A000021490C31086042F21070204908804720BB
:101A1000091F08801D481438008840F480701B4955
:101A2000143908800846008840F440500880084671
:101A30000088088015480C38008814490C39088043
:101A40000846008840F010000880104820380088C0
:101A500040F004000D49203908800846008840F015
:101A60000100088009482C38008840F0010007492F
:101A70002C3908800223322203210120FFF7F4FED3
:101A800010BD000000100240000801402C0C004076
:101A900010B50020154B1B7803F0400323B3144B03
:101AA0001B68190E124B1B68C3F30742D343DBB20A
:101AB0008B420AD10E4B1B88C3F307210C4B1A78BB
:101AC000D343DBB28B4200D1084620B1074B1B78D1
:101AD00003F0800343B9054B1B7823F04003034C0C
:101AE00023700023034C237010BD00000000002071
:101AF000040000200800002010B500F001F810BD1F
:101B00000CB50020019000903348006840F480300C
:101B10003149086000BF3048006800F40030009090
:101B20000198401C0190009818B90198B0F5A06F79
:101B3000F1D12948006800F4003010B10120009074
:101B400001E0002000900098012843D1234800685C
:101B500040F01000214908600846006820F00300AA
:101B600008600846006840F0020008601A484068B3
:101B7000194948600846406848600846406840F493
:101B8000806048600846406820F47C104860084641
:101B9000406840F4E81048600846006840F08070F3
:101BA000086000BF0C48006800F000700028F9D001
:101BB0000948406820F0030007494860084640682B
:101BC00040F00200486000BF0348406800F00C008D
:101BD0000828F9D10CBD000000100240002002408E
:101BE00030B504460025FFF70BFE1F48006840F49F
:101BF00080301D49086000BF1B480068400C002869
:101C0000FAD04FF4806018494860A01EC4B208465C
:101C1000406840EA844048600846406840F48030AC
:101C200048601248006840F03200104908600E48D1
:101C3000006840F080700C49086000BF0A480068E6
:101C4000400E0028FAD00848406840F002000649DB
:101C5000486005E004484068C0F3870505F00305C7
:101C6000022DF7D130BD00000010024000200240DC
:101C700010B51348006840F001001149086008469B
:101C80004068104908400E494860084600680E49FF
:101C900008400B4908600846006820F4802008606E
:101CA0000846406820F4FE0048604FF41F0088603A
:101CB000FFF722FF4FF000600449086010BD0000EC
:101CC000001002400000FFF8FFFFF6FE08ED00E004
:101CD0004FF08041088A2849098801F40041002911
:101CE00045D100F00101B9B123490988C1F30D01C3
:101CF00043F6FF7291420AD11F49098841F400411D
:101D00001D4A11804FF6FF711C4A118004E01A49E8
:101D10000988491C184A118000F0020139B316499C
:101D2000098801F4804179B94FF48041124A118049
:101D30000021124A11804FF0804291841146098C93
:101D400041F00201118412E00B49098841F400417D
:101D5000094A11804FF08041898E084A11804FF066
:101D60008041098C21F002014FF080421184002152
:101D70004FF0804211827047B0010020AE01002078
:101D800010B52D48008800F0010000284CD0002438
:101D900032E0042C17DA29480078844209D1012066
:101DA000274951F82410274A02EB8101C1F880012C
:101DB00020E00020224951F82410224A02EB810140
:101DC000C1F8800116E01D480078844209D1012045
:101DD0001B4951F824101C4A02EB8101C1F8800113
:101DE00008E00020164951F82410174A02EB81013F
:101DF000C1F88001601CC4B2082CCADB1349097801
:101E0000134A02EB41110D4A127811F82200FFF734
:101E1000CFFC0A490978481CC11700EB5171C91061
:101E2000A0EBC101054A11700348008820F00100B1
:101E30000149088010BD000010040040AC010020E2
:101E40002C0000200000224200802142B20100202C
:101E50004C00002070B505460C461048C06940F0A3
:101E600002000E49C8610E480580001F04800C481E
:101E70002038008840F001000949203908800848CE
:101E80002C38008840F0010005492C3908800223D5
:101E90001D2203210120FFF7E7FC70BD0010024066
:101EA0002C0400405F49088800F00101F9B15E4947
:101EB000097801F08001D1B15B49097821F0100166
:101EC000594A11701146097801F00F0121B91146E4
:101ED000097841F0400111705349097801F00F0170
:101EE0000E2905DA50490978491C4F4A11700AE059
:101EF0004D49097821F080014B4A1170114609784B
:101F000001F0F001117000F00401002913D04749DD
:101F1000096889B143491031098841F02001414ADB
:101F2000103211800021121D11803F49097841F0C3
:101F300010013D4A117070E03A49283109883C4A45
:101F4000118038491031098821F02001354A1032BA
:101F500011803549097801F01001002957D0324924
:101F6000097801F08001E1B331490988B1F5967F24
:101F70000ADD2F490988B1F5487F05DA2D4909683E
:101F800049002C4A116042E029490988B1F5AF6F38
:101F90000FDD27490988B1F5E16F0ADA254909689B
:101FA0004900244A11601146096841F0010111609D
:101FB0002DE01F49098840F69802914227DD1C490F
:101FC000098840F62822914221DA1B490978491CE8
:101FD000194A11701449097801F0F001124A117080
:101FE00015E0FFE71249098841F2680291420EDDCF
:101FF0000F49098841F25C22914208DA0A490978BE
:1020000041F08001084A117000210B4A1170064905
:10201000097821F01001044A11700021014A118051
:1020200070470000100C0040000000200401214215
:1020300002000020040000200800002017488069EA
:1020400040F00800154988611548006820F07F407D
:10205000134908600846006840F04C500860081DAD
:1020600000686FF31300091D0860084600680D49F9
:1020700008430B49091D086001200B4908600B4902
:10208000C1F8A40100200849083108600120091D99
:1020900008600020091D0860704700000010024021
:1020A000000C014033330300A08121420080214213
:1020B00070B505460C461F48C06940F001001D4937
:1020C000C8610846806940F0040088611A480068C9
:1020D00020F00F00184908600846006840F004002E
:1020E0000860C80485850485008B40F00100C904A0
:1020F00008830846008C20F0020008840846008C03
:1021000040F0010008840846808940F00200888180
:102110000846808940F0010088810846008840F028
:102120000100088002231C2200211846FFF79CFBB7
:1021300070BD00000010024000080140214AD26931
:1021400042F004021F4BDA611F4A126822F07F42FC
:102150001D4B1A601A46126842F03B421A601B4A35
:102160001080121F1180194A143A128842F060023E
:10217000164B143B1A801A46128842F008021A8045
:102180001A46128842F4C0421A801A46128842F453
:1021900000621A800D4A0C3A128842F001020B4B81
:1021A0000C3B1A801A46128842F010021A808022D4
:1021B000064B2C3B1A801A46128842F001021A8004
:1021C0007047000000100240000C01402C08004045
:1021D0001D49098801F0200111B31B49091D098817
:1021E000C8B21A49098801F40041C9B917490988D8
:1021F00001F4804161B10A2803D00021134A118003
:1022000020E01249098841F40041104A118019E088
:102210000D2806D10D49098841F480410B4A1180EF
:1022200010E00A490988C1F30D01094A50540749D1
:102230000988491C054A118011460988C72901DD12
:10224000002111807047000000380140C0010020CB
:10225000C4010020490050EAC12018BF04204A0DE3
:1022600018BF40F0010040F2FF72B2EB515F08BFAF
:1022700040F00200012808BF05207047014600BF5A
:10228000704700004FF0E021096921F004014FF090
:10229000E0221161C21700EB5272C2F3C702074B72
:1022A0001A701946097801EB4102C2EBC1114FF6D1
:1022B000FF7202EAC101024A11807047B801002092
:1022C000BA01002001460D4A12884A434FF0E0232C
:1022D0005A6100229A6101221A6100BF4FF0E02288
:1022E000106900F001021AB100F48032002AF5D022
:1022F00000224FF0E0231A619A617047BA01002072
:1023000001460D4A12784A434FF0E0235A610022F9
:102310009A6101221A6100BF4FF0E022106900F0BB
:1023200001021AB100F48032002AF5D000224FF0E9
:10233000E0231A619A617047B801002000BF054A86
:10234000128802F04002002AF9D0C2B2014B1B1DD4
:102350001A807047003801400920FFF741FC4820EF
:10236000FFF790FF4FF41651482000F029F8FEF7D0
:102370008DFFFFF729FBFFF761FEFFF78BF9FFF7F2
:10238000F3F8FEF74FFF002141F27070FFF7D6FE21
:1023900041F61F410A20FFF75DFD48214FF6FF700F
:1023A000FFF786FE08E0FEF78DFF0448007810B9BD
:1023B000FEF76CFF00E000BFF5E70000B20100206F
:1023C0002DE9F05F05460E46300100F01BFE814608
:1023D0002E4905FB01F000F015FE8246494600F04B
:1023E0002FFD0746384600F0EDFD84B2204600F090
:1023F00009FE8346394600F0E5FE82464FF08341F0
:1024000000F014FE814600F0DDFD80464FF6FF70BF
:1024100000EA041404EB080084B21D48806940F00F
:1024200004001B4988610846806940F48040886147
:102430001848006820F47F60164908600846006864
:1024400040F40B6008601248C06840F480401049B6
:10245000C8600846C06820F48040C8600E48048008
:10246000001D008842F20C0108430B49091D088039
:102470000846008840F0200008800223252203211E
:102480000846FFF7F1F9BDE8F09F000040420F0059
:1024900000100240040801400838014010B500292E
:1024A0000AD00878002807D005487844FEF7BEFA1D
:1024B000002801D0002010BD0248784410BD000063
:1024C000D20E0000CA0E000010B591EA030F48BFFB
:1024D00083F0004300F17083841A71EB030C05D282
:1024E000121943EB0C03001B61EB0C01DFF824E134
:1024F0004FEA1154A4EB135C1EEA430F18BF9EEA87
:10250000445F73D023EA0E03DCF1200E21EA04516C
:1025100043F4801332D322FA0CFE10EB0E0023FAA0
:102520000CFE41EB0E01CCF1200E03FA0EFE10EB77
:102530000E0051F10001B1F5801FCCF1200E32D216
:1025400001EB045112FA0EF2BDE8104058BF70477B
:10255000401C38BF5FEA420218BF7047002814BF12
:1025600020F0010041F100014FEA410313F5001F83
:1025700038BF7047A1F1C04100F010BB012A43EB06
:102580000302ACF1200CDCF11F0E32BF4FF0000E45
:1025900023FA0CF310EB030041EB0451B4EB115F91
:1025A000D0D0A1EB045101F5801149085FEA300059
:1025B00001EB04510ED350F1000038BF12FA0EFEA9
:1025C00008D1BDE81040C9E7401C38BF5FEA4202AD
:1025D000CAD1C3E7BDE810404FEA410313F5001F1D
:1025E00038BF7047A1F1C04100F0D8BA9EEA445FFD
:1025F00008D011EA5E0FBDE8104004BF01F00041B1
:1026000000207047BDE8104070B500F079FA00BFB7
:1026100064FBBE3E0000E0FF491058BFC1F14041DD
:102620005B1058BFC3F140438B42EFF3008070470B
:102630002DE9C04130B4DFF8A0C23CEA111418BF44
:102640003CEA131400F0EC8081EA03051CEA111443
:1026500044EAD57418BF1CEA131500F0C780A4EB38
:1026600005044FF0004545EAC12145EAC32341EA8C
:10267000505143EA525304F17F74994204F50034F7
:102680004FEAC0204FEAC22208BF904200F09C806F
:102690004FEA13650FF24016765D4FEA134506FBCD
:1026A00005F7C7F1807706FB07F74FEAD737A7FB97
:1026B00003687642C8F58038A7FB06CE38BFA8F17C
:1026C000010807FB08E64FF0000EA6FB028CE6FBB4
:1026D00003CEDCF1000CCEF1004E38BFAEF1010E9E
:1026E000A6FB0C584FF000074FF00005E6FB0E87E5
:1026F000A1FB08C6A0FB07CE16EB0E0645F10005B0
:10270000E1FB076515F1E04E7EBFA4F580345FEA7A
:1027100046066D4116F1800745F100054FEA17277F
:102720004FEA066647EA0567A6F1DE46B6F1805F26
:102730004FEA15251FD9384624F0010C05EBC4716A
:10274000BCF1FE6F01EB0C1102D8F0BCBDE80081BA
:1027500024425CBF01F5801E9EEAC47F02D4F0BC17
:10276000BDE80081244238D4F0BCA1F1C041BDE8ED
:10277000004100F013BA4FEAD22242EA43524FEA34
:10278000D323A7FB02864FEAD02040EA415007FB43
:1027900003661EEA0E0F4FEAD12105FB026658BF01
:1027A000A6EB0056B6EB00564FEA520E4EEAC37E39
:1027B00018EB0E0E56EB530EBDD518EB02085E411A
:1027C0007F1C55F10005B6E74FF480154FF0000768
:1027D0004FF000064FF00008ADE7F0BC4FF00000EE
:1027E00001F1C04101F00041BDE8008111EA0C1F78
:1027F0000CEA131500D00CE013EA0C1F00F0258042
:102800004FF00000F0BC81EA030101F00041BDE897
:102810000081F0BCBDE8004181EA030100F0BEB9CF
:10282000F0BCBDE8004170B500F06AF9097EFC3EDD
:1028300000F007B881EA03014FF0000001F0004109
:10284000704781EA030100F0A9B9F0BCBDE800417E
:102850004FF0000021497047FFFDFBF9F7F5F4F256
:10286000F0EEEDEBE9E8E6E4E3E1E0DEDDDBDAD82B
:10287000D7D5D4D3D1D0CFCDCCCBCAC8C7C6C5C489
:10288000C2C1C0BFBEBDBCBBBAB9B8B7B6B5B4B3A0
:10289000B2B1B0AFAEADACABAAA9A8A8A7A6A5A48B
:1028A000A3A3A2A1A09F9F9E9D9C9C9B9A9999984F
:1028B0009797969595949393929191908F8F8E8EF2
:1028C0008D8C8C8B8B8A898988888787868585847F
:1028D00084838382828181800000FF070000F87F6B
:1028E00010F0004248BF4042B0FA80F310FA03F102
:1028F0000AD0C3F11D0303F580634FEA415002EB98
:10290000035202EBD12170474FF000007047B0FA3C
:1029100080F310FA03F10AD0C3F11D0303F58063BD
:102920004FEA41504FEA035202EBD12170474FF07A
:102930000000704751EA030C17D41CF5801F58BFE4
:10294000BCF5801F00F10680994218BF704708BF90
:102950009042704707D711F5801F58BF13F5801FAD
:1029600019D499427047894270471CF5801F08D5D9
:10297000BCF5801FF7D58B4218BF704708BF824255
:1029800070474FF4001C1CEB410F38BF1CEB430F8A
:1029900001D28B42704770B500F0B2F89224490022
:1029A0004FF000514FF08053FFF736BEDFF848C1BB
:1029B00070B51CEA111E1EBF1CEA13159EEA0C0F0F
:1029C00095EA0C0F00F06F8081EA030423EA4C13B0
:1029D0004EEAD47E21EA4C1141F4801143F4801375
:1029E000AE44A1FB024CA0FB0365AEF17F7E36191D
:1029F00055EB0C05A1FB034C4CF10003A0FB021CA2
:102A000016EB0C06654153F10003094218BF46F06E
:102A1000010613F4007F0BD14FEA03314FEA053072
:102A2000340341EA155140EA16506FF003020AE000
:102A30004FEAC3214FEAC520F40241EA555140EA6A
:102A400056506FF0020202EB2E4201EB025585EA6E
:102A5000CE710AD05FEA440C18BF24F0004450F154
:102A6000000041F1000120EAD47040F2FE7C624592
:102A700000D270BDA84214BF4FF080444FF04044D4
:102A8000002E08BF0024BEF1806FA8BFA1F1C04195
:102A9000BDE8704080F282804FF0000001F1C0413B
:102AA00001F0004170479EEA0C0F0CEA131518BFA5
:102AB00095EA0C0F06D04FF0000081EA030E0EF0ED
:102AC000004170BD00F01CF88900013E00F007B81D
:102AD00000F009B84FEA430C5FEA5C5C08D081EA79
:102AE000030100F05BB84FEA410C5FEA5C5CF6D191
:102AF0004FF00000014970470000FF070000F87F19
:102B00000EF1020E2EF0030E5EF8046B364205D471
:102B1000012A43EB030515F5001F12D8012841EBEC
:102B2000010C1CF5001F0CD80ED14FEAD17C15F515
:102B3000001F0CEB4C0C0CF1020C08BF4CEBD37CCF
:102B400004E04FF0080C01E04FEAD37C0CEB4C059D
:102B500026FA05F606F00706B6F1040C06D20EEBCF
:102B6000860CBDE870404CF0010C6047DFE80CF0CB
:102B7000090B02024FF000414FF00000A1F50021C7
:102B800070BD19461046012851EB010418BFD4F559
:102B9000001484BF002001F0004170BD0808A0F5BA
:102BA00000114FEA3101704710B591EA030F48BF99
:102BB00083F000433FF590AC841A71EB030C07D20D
:102BC00012198CF0004C43EB0C03001B61EB0C0161
:102BD000DFF8A4E14FEA1154A4EB135C1EEA430FA3
:102BE00018BF9EEA445F00F0B08023EA6E035242B1
:102BF00021EA0451C3EB6E0338BF5B1EDCF1200EEB
:102C000025D322FA0CFE10EB0E0043FA0CFE41EB2A
:102C10000E01CCF1200E03FA0EFE10EB0E0051F166
:102C20000001CCF1200E29D412FA0EF201EB04516E
:102C3000BDE8104058BF7047401C1CBFB2F1004FA8
:102C4000704700280CBF491C20F00100704712EBB0
:102C5000020E43EB030218BF4FF0010E4EEA420290
:102C6000ACF1200CDCF11E0E54D943FA0CFE10EB33
:102C70000E0051F1FF31CCF11E0ED5D50EF1010E33
:102C800012FA0EFE404141EB010101EB445C5FEAA8
:102C90005C5C10D910EBDE7001EB045138BFBEF163
:102CA000004FBDE8104018BF704700280CBF491CFA
:102CB00020F00100704730D24FEAD42C11F50011FA
:102CC00024F400641BD0B1FA81F20B3AA41AA41EBA
:102CD000D2F12003914030FA03F31943904001EB05
:102CE000CC71002C01EB0451BDE81040A8BF704727
:102CF00001F1C0414FF0000001F000417047B0FA0F
:102D000080F310FA03F100D110BDE41A173C480516
:102D1000C90AE4E701EB045110BD491001EB04516D
:102D2000BDE810404FEA300002E04FF0000170476C
:102D30004A0008BF0042F8D0B2F5001F28BF704714
:102D400001F000414FF0000070479EEA445F07D059
:102D500011EA5E0FBDE8104004BF0021002070475B
:102D6000BDE8104070B5FFF7CBFE00BF40DFF63E78
:102D700083F00041104670470000E0FF90EA010F29
:102D800048BF81F0004100F12E82421A3CBF801AF8
:102D900089184FEAD0524FF07F4C1CEA410FA2EB4A
:102DA000D15318BF9CEA026F00F03B804FF0004CFB
:102DB0004CEA00204CEA012121FA03FC10EB0C0C38
:102DC0001ED202F1FF325FEA1C2040EBC25038BF36
:102DD00070471CF07F0F4FEA400C18BFBCF17F4FCB
:102DE00038BF7047C3F12003994008BF20F00100AD
:102DF000BCF17F4F38BF7047A0F1C04000F0DDB993
:102E00004FEA3C00000A40EBC25028BF1CF0FF0F05
:102E10004FEA400CE6D018BFBCF17F4F38BF704777
:102E2000EAE79CEA026F05D010EA5C0F08BF00F0E9
:102E30000040704710B500F07AF900BF64FBBE3E59
:102E40004FF47F0C1CEAD0121EBF1CEAD11392EA89
:102E50000C0F93EA0C0F00F0858090EA010F48BF39
:102E600042F4807240F4000C41F400002CF07F41E9
:102E700020F07F4000B58142A2EB03020FF2081C54
:102E8000ACEB504EC0F100009EF800E04FEA4E0E51
:102E900000FB0EFC38BF49004FEA2C1C02F5FA0279
:102EA0000CFB0EF34FEACE1E4FEA112C4FEAC12164
:102EB0000EEB635E42EB22420EFB0CFC4FEA1C530E
:102EC00000FB03114FEA112C4FEA01310EFB0CFC01
:102ED0004FEADC4C00FB0C11C14228BF09184CEB37
:102EE00003335DF804EB10EB410143EBC250B2F544
:102EF0007C0F38BF704729D512F0F00F1CBF00F1CE
:102F0000C04000F00040704700818283848586873E
:102F100088898B8C8D8E8F919293959697999A9C98
:102F20009D9FA0A2A3A5A7A8AAACAEB0B2B3B5B707
:102F3000B9BCBEC0C2C5C7C9CCCED1D4D7D9DCDFDD
:102F4000E2E6E9ECF0F3F7FAFE0000004FEA400C8D
:102F50000CF1807CBCF17E4F28BF7047B0F1C040BF
:102F600000F02BB990EA010F0CEAD11348BF42F4EC
:102F70008072624538BF634507D213F47F0F16D0C5
:102F800080EA010000F00040704710B500F0CFF873
:102F9000097EFC3E00F005B880EA010000F0004028
:102FA000704780EA010000F0004000F006B912F41A
:102FB0007F0F04BF0248704780EA010000F0FDB8AF
:102FC0000000C07FC10DD1F19E0206DB4FEA002355
:102FD00043F0004323FA02F07047004207D54FEA5E
:102FE0004001B1F1FE4F02D24FF00000704710B522
:102FF00000F09DF849922480002070476FEA20007D
:1030000070470000B0FA80F310FA03F2C3F19D0399
:103010000AD0D90501EB1220530638BF704700F1E2
:10302000010008BF20F00100704700004FF47F0C42
:103030001CEAD0121EBF1CEAD11392EA0C0F93EACD
:103040000C0F00F0478090EA010F48BF42F48072F5
:103050004FF0004C4CEA00204CEA012102EB030245
:10306000A0FB0113A2F50002002918BF43F00103E1
:103070005B0028BF4FEA330342EB22425FEA132C86
:103080004CEBC2502EBFBCEB436FB2F57C0F7047C8
:103090004FEA036CBCF1004F08BF20F00100B2F50D
:1030A0007C0F38BF70470BD582F0FF0212F5803FCE
:1030B000C8BF704700F1C040D8BF00F00040704763
:1030C00000F5000C5FEA4C0C48BF7047B0F1C040FF
:1030D00000F073B890EA010F0CEAD11348BF42F434
:1030E0008072624538BF634504D280EA010000F077
:1030F0000040704710B500F01AF800BF8900013E8B
:1031000000F007B800F009B85FEA410C5FEA1C6CF8
:1031100008D080EA010000F050B85FEA400C5FEA96
:103120001C6CF6D14FF00040A0F5800070470EF106
:10313000020E2EF0030E5EF8044B244204D44FEA34
:103140004102B2F17F4F11D84FEA4003B3F17F4FF4
:103150000CD80ED14FEAD07CB2F17F4F0CEB4C0C67
:103160000CF1020C08BF4CEBD17C04E04FF0080CD2
:1031700001E04FEAD17C0CEB4C0324FA03F404F099
:103180000704B4F1040C06D20EEB840CBDE8104029
:103190004CF0010C6047DFE80CF0070802024FF02A
:1031A0000040A0F5800010BD0846420018BFD2F1D3
:1031B000807288BF00F0004010BDFF2141EAD0506E
:1031C000C005704780F0004090EA010F7FF5DDAD4B
:1031D00081F0004100F007B890EA010F48BF81F08C
:1031E00000413FF5D2AD421A04D882F00042A0EB74
:1031F000020011444FEAD0524FF07F4C1CEA410FBD
:10320000A2EBD15318BF9CEA026F4AD04FF0004C9A
:103210004CEA00204CEA012121FA03FCB0EB0C0C33
:103220000FD412F0FE0F36D05FEA4C001DD500120D
:1032300040EBC25038BF70471CF03F0F18BF7047BB
:103240000BE0A2F101025FEA1C2040EBC25038BF44
:1032500070471CF07F0F18BF7047C3F120039940DF
:1032600014BF401E20F00100704780084FEA12236F
:1032700008BF7047B0FA80FCA2EB0C02CCF1280C1E
:1032800060FA0CF093EA122F04BF00EBC2507047B3
:103290004FEAC3707047130A5FEADC1008BF70473B
:1032A000F6E79CEA026F04D010EA5C0F08BF00202A
:1032B000704710B5FFF73BFF40DFF63E81F000405E
:1032C0007047FDF726B9000002400000000000A092
:1032D0000000000005400000000000C800000000E1
:1032E0000C4000000000409C00000000194000005D
:1032F0000020BCBE0000000034400000BFC91B8E8F
:1033000000000004B5400000504BCFD06607E2CF6C
:10331000010000006C4100003E8251AADFEEA7349C
:1033200001000000D9420000DCB5A0E23A301F974E
:10333000FFFFFFFFB4450000FD25A0C8E9A3C14F72
:10334000FFFFFFFFFF3F00000000008000000000C3
:10335000FF3F0000000000800000000098330008DC
:1033600000000020C40100006C01000800340008C7
:10337000C40100200C080000C80100081C00000067
:1033800043000000F8FFFFFF0C0000000E000000EB
:103390000F0000002E000000C1320332043205325B
:1033A0000632073208320D320E5A09102918292028
:1033B000419A013832FF32E35ADF0432E75AFB0404
:1033C0000223C7293032DB32BD5A180C69045AC3B4
:1033D00004A9142924292C290C293C32EF32CF329C
:1033E000B05A7E04290C2914291C32F75AF3E069DB
:1033F00020290C2914291C29C0099A04011800004D
:0400000508000131BD
:00000001FF
