:020000040800F2
:10000000E8080020150200081D0200081F02000871
:100010002102000823020008250200080000000059
:10002000000000000000000000000000270200089F
:1000300029020008000000002B0200082D02000821
:100040002F0200082F0200082F0200082F020008CC
:100050002F0200082F0200082F0200082F020008BC
:100060002F0200082F0200082F0200082F020008AC
:100070002F0200082F0200082F0200082F0200089C
:100080002F0200082F0200082F0200082F0200088C
:100090002F0200082F0200082F0200082F0200087C
:1000A0002F0200082F0200082F0200082F0200086C
:1000B0002F020008E10D00082F0200082F0200089F
:1000C0002F0200082F0200082F0200082F0200084C
:1000D0002F020008A51100082F0200082F020008B7
:1000E0002F0200082F0200082F0200082F0200082C
:1000F0002F0200082F0200082F0200082F0200081C
:100100002F0200082F020008050F00082F02000828
:100110002F0200082F0200082F0200082F020008FB
:100120002F0200082F0200082F0200082F020008EB
:1001300000F002F800F05FF80AA090E8000C82449A
:100140008344AAF10107DA4501D100F054F8AFF277
:10015000090EBAE80F0013F0010F18BFFB1A43F0A5
:1001600001031847F4170000141800000A444FF068
:10017000000C10F8013B13F0070408BF10F8014B06
:100180001D1108BF10F8015B641E05D010F8016B4B
:10019000641E01F8016BF9D113F0080F1EBF10F8AF
:1001A000014BAD1C0C1B09D16D1E58BF01F801CBD2
:1001B000FAD505E014F8016B01F8016B6D1EF9D555
:1001C0009142D6D37047000000230024002500266A
:1001D000103A28BF78C1FBD8520728BF30C148BFAA
:1001E0000B607047642900F07780002070471FB5CE
:1001F0001FBD10B510BD00F037F91146FFF7F7FF2E
:1002000001F062F800F055F903B4FFF7F2FF03BC08
:1002100001F00AF80948804709480047FEE7FEE771
:10022000FEE7FEE7FEE7FEE7FEE7FEE7FEE7FEE7A6
:1002300004480549054A064B70470000810D000837
:1002400031010008E8020020E8080020E80400204E
:10025000E8040020704700000FB4044910B503AA59
:10026000029800F0D3F810BC5DF814FBB801002030
:100270002DE9F0410E460446002020622046E16848
:10028000884730B3252805D0D4E901219047206A5A
:10029000401CF2E7E168204600278847050018D097
:1002A000A5F14100192802D820354FF400673246E5
:1002B000294620462760FFF795FF40B1012804D06A
:1002C000F61D26F007060836D8E7361DD6E728467D
:1002D000DAE7206ABDE8F0812DE9F0410646002406
:1002E00010687529314616A510D0AFF3008000289C
:1002F00002DA404213A507E031688A0701D512A54A
:1003000002E0490704D511A5012401E0AFF3008004
:1003100000210A2206F1240709E0B0FBF2FCB0FB41
:10032000F2F302FB1C00303078541846491C0028B8
:10033000F3D123462A463046BDE8F04100F00CB820
:10034000000000002D0000002B0000002000000035
:1003500070477047704770472DE9F0470D46994642
:100360009246044600F124080168880604D5E06935
:1003700021F01001216000E00120A84201DD471BAF
:1003800000E00027A1697A1902EB0900081AA061B0
:100390002078C00602D42046AFF30080002608E093
:1003A000D4E901211AF806009047206A401C761C07
:1003B00020624E45F4DB2078C0060AD52046AFF314
:1003C000008006E0D4E9012130209047206A401CDB
:1003D0002062381EA7F10107F4DC07E0D4E901210F
:1003E00018F805009047206A401C2062281EA5F1DD
:1003F0000105F3DC2046AFF300802078000602D52B
:100400000220BDE8F0870120FBE70000074B70B534
:100410000D467B4400F011F80446284600F020F811
:1004200010B14FF0FF3070BD204670BD970E000038
:1004300001694A1C02610878704700B58FB0CDE9A8
:1004400001310021059105497944CDE90310114698
:100450006846FFF70DFF0FB000BD0000E5FFFFFF8E
:10046000007B00F080007047754600F029F8AE462A
:1004700005006946534620F00700854618B020B5B0
:10048000FFF7D6FEBDE820404FF000064FF0000712
:100490004FF000084FF0000B21F00701AC46ACE82C
:1004A000C009ACE8C009ACE8C009ACE8C0098D4699
:1004B00070470446AFF300802046FFF7A5FE00001A
:1004C00000487047880200200A48806940F0040014
:1004D000084988610848006820F47060064908608F
:1004E0000846006840F44070086000200349086036
:1004F00070470000001002400008014088012142BE
:1005000000B501200749086000F0FAF840F6B8305D
:100510000549488005490880034988800349091D29
:10052000088000BD88012142AE010020340800404F
:1005300000B500200949086009490870A2204870E8
:1005400000F006F900200649488006490880044961
:1005500088800449091D088000BD000088012142EF
:10056000AE0100203408004010B500F019FB4D49E1
:1005700048700846407800B910BD4A48407868285D
:100580002FD006DC182877D0302862D0422813D12B
:1005900013E0982839D0A22802D0B0287ED146E0B6
:1005A000012041490860642000F062FE00203F49BC
:1005B000C1F888013B49087070E03A48007800B102
:1005C0006CE0012038490860C82000F051FE00208E
:1005D0003649C1F88801FFF793FF012031490870BF
:1005E0005CE03048007800B158E001202E490860F6
:1005F000C82000F03DFE00202C49C1F888010620EB
:100600002849087000F012FA48E02648007800B146
:1006100044E0012024490860C82000F029FE0020A1
:100620002249C1F8880107201E49087036E01D489C
:10063000007800B132E001201B490860C82000F0BA
:1006400017FE00201949C1F88801082015490870D3
:1006500024E01448007800B120E00120124908602D
:10066000C82000F005FE00201049C1F888010920CB
:100670000C49087012E0FFE70A48007800B10DE06D
:10068000012009490860C82000F0F2FD0020074958
:10069000C1F888010A200349087000BF00BF00BFED
:1006A0006AE70000AE0100208801214200002142DB
:1006B00000200749086001200649C1F8A801002070
:1006C00003490831086001200249C1F8B0017047B0
:1006D000A4812142008021420020074908600120B6
:1006E0000649C1F8A80104490831086000200349FF
:1006F000C1F8B00170470000A4812142008021426E
:1007000001200749086000200649C1F8A8010449F2
:100710000831086001200349C1F8B00170470000AA
:10072000A481214200802142012007490860002065
:100730000649C1F8A80101200349083108600020DA
:100740000249C1F8B0017047A481214200802142D2
:100750000020064908600649C1F8A801034908318C
:1007600008600349C1F8B00170470000A48121422C
:100770000080214201464906084A926942F001027E
:10078000064B9A61064A526822F0E062044B5A60B6
:100790001A4652680A435A6070470000001002402F
:1007A0000000014010B50220FFF7E4FF37488069E0
:1007B00040F00400354988610846806940F008002F
:1007C00088610846806940F0100088613048006800
:1007D000C0F30B002E490860084600682D49084305
:1007E0002B490860081D00682B4908402849091D4D
:1007F000086008460068294908432549091D086022
:1008000027480068274908402549086008460068CD
:1008100025490843224908602448006820F07F40A9
:10082000224908600846006840F04C5008600846BD
:10083000406820F0FF0048600846406840F0330000
:10084000486001201A490860091F086018490C39DE
:100850000860091F086017490860091D0860091D24
:100860000860091D086014490860091D0860091D19
:100870000860091D0860091D0860091D08600E490F
:10088000283108600D49C1F8B80110BD00100240C0
:100890000008014000303333F0FF0FF00300300355
:1008A000000C0140000FF0FF333003000010014046
:1008B00090812142980122428C0121420000214274
:1008C00010B5002100BF1BE000F001024AB9002270
:1008D0000D4B53F821300D4C04EB8303C3F88021FA
:1008E00008E00122084B53F82130084C04EB830345
:1008F000C3F88021024600EBD273C3F34700491CC2
:100900000829E1DB10BD00000C000020000021429E
:1009100000B5002015490861C86014204861002016
:100920008861C8610846006840F001000860084618
:1009300040680F4908400D494860084600680D4965
:1009400008400A4908600846006820F480200860D2
:100950000846406820F4FE004860002088600021BE
:100960004FF0006000F058F800BD00000010024099
:100970000000FFF8FFFFF6FE2DE9F041074688462C
:1009800014461D46284600F033F8C5F1040007FA66
:1009900000F60F20284100EA0800064306F00F0683
:1009A000E21704EBD2625211920002F1E022D2F877
:1009B00000212146E31704EBD3635B11A4EB431C36
:1009C000012303FA0CF31A432046E31704EBD36325
:1009D0005B119B0003F1E023C3F800210348005D95
:1009E00040EA061001490855BDE8F08100E400E046
:1009F0000146072323EA01021202054B18684FF64D
:100A0000FF031840034B18431043014B1860704715
:100A10000CED00E00000FA05024A0A400243024BD6
:100A20001A60704780FFFF1F08ED00E010B54AE034
:100A300000F0B6F8244948704FF4616048802349BB
:100A40000880214988802149091D08801E48407876
:100A5000A22822D004DC222813D062282CD104E062
:100A6000A82808D0C22827D111E002201649087012
:100A7000FFF75AFE26E0032013490870FFF718FE1F
:100A800020E0042010490870FFF726FE1AE0052038
:100A90000D490870FFF734FE14E001200C4908608E
:100AA000642000F0E5FB00200A49C1F888010649EE
:100AB0000870FFF73DFD10BD062003490870FFF7E1
:100AC00047FE00BF00BFB3E7AE010020340800407E
:100AD000880121420000214210B52E48C06940F033
:100AE00008002C49C8610846806940F0040088610C
:100AF0002948006820F0F00027490860084600688F
:100B000040F08000086024480C30006840F002008B
:100B100021490C31086042F21070204908804720BA
:100B2000091F08801D481438008840F480701B4954
:100B3000143908800846008840F440500880084670
:100B40000088088015480C38008814490C39088042
:100B50000846008840F010000880104820380088BF
:100B600040F004000D49203908800846008840F014
:100B70000100088009482C38008840F0010007492E
:100B80002C3908800223322203210120FFF7F4FED2
:100B900010BD000000100240000801402C0C004075
:100BA00010B50020154B1B7803F0400323B3144B02
:100BB0001B68190E124B1B68C3F30742D343DBB209
:100BC0008B420AD10E4B1B88C3F307210C4B1A78BA
:100BD000D343DBB28B4200D1084620B1074B1B78D0
:100BE00003F0800343B9054B1B7823F04003034C0B
:100BF00023700023034C237010BD00000000002070
:100C0000040000200800002010B500F001F810BD1D
:100C10000CB50020019000903348006840F480300B
:100C20003149086000BF3048006800F4003000908F
:100C30000198401C0190009818B90198B0F5A06F78
:100C4000F1D12948006800F4003010B10120009073
:100C500001E0002000900098012843D1234800685B
:100C600040F01000214908600846006820F00300A9
:100C700008600846006840F0020008601A484068B2
:100C8000194948600846406848600846406840F492
:100C9000806048600846406820F47C104860084640
:100CA000406840F4E81048600846006840F08070F2
:100CB000086000BF0C48006800F000700028F9D000
:100CC0000948406820F0030007494860084640682A
:100CD00040F00200486000BF0348406800F00C008C
:100CE0000828F9D10CBD000000100240002002408D
:100CF00030B504460025FFF70BFE1F48006840F49E
:100D000080301D49086000BF1B480068400C002867
:100D1000FAD04FF4806018494860A01EC4B208465B
:100D2000406840EA844048600846406840F48030AB
:100D300048601248006840F03200104908600E48D0
:100D4000006840F080700C49086000BF0A480068E5
:100D5000400E0028FAD00848406840F002000649DA
:100D6000486005E004484068C0F3870505F00305C6
:100D7000022DF7D130BD00000010024000200240DB
:100D800010B51348006840F001001149086008469A
:100D90004068104908400E494860084600680E49FE
:100DA00008400B4908600846006820F4802008606D
:100DB0000846406820F4FE0048604FF41F00886039
:100DC000FFF722FF4FF000600449086010BD0000EB
:100DD000001002400000FFF8FFFFF6FE08ED00E003
:100DE00010B52D48008800F0010000284CD00024E8
:100DF00032E0042C17DA29480078844209D1012016
:100E0000274951F82410274A02EB8101C1F88001DB
:100E100020E00020224951F82410224A02EB8101EF
:100E2000C1F8800116E01D480078844209D10120F4
:100E30001B4951F824101C4A02EB8101C1F88001C2
:100E400008E00020164951F82410174A02EB8101EE
:100E5000C1F88001601CC4B2082CCADB13490978B0
:100E6000134A02EB41110D4A127811F82200FFF7E4
:100E700027FD0A490978481CC11700EB5171C910B8
:100E8000A0EBC101054A11700348008820F0010061
:100E90000149088010BD000010040040AC01002092
:100EA0002C0000200000224200802142AE010020E0
:100EB0004C00002070B505460C461048C06940F053
:100EC00002000E49C8610E480580001F04800C48CE
:100ED0002038008840F0010009492039088008487E
:100EE0002C38008840F0010005492C390880022385
:100EF0001D2203210120FFF73FFD70BD00100240BD
:100F00002C0400405F49088800F00101F9B15E49F6
:100F1000097801F08001D1B15B49097821F0100115
:100F2000594A11701146097801F00F0121B9114693
:100F3000097841F0400111705349097801F00F011F
:100F40000E2905DA50490978491C4F4A11700AE008
:100F50004D49097821F080014B4A117011460978FA
:100F600001F0F001117000F00401002913D047498D
:100F7000096889B143491031098841F02001414A8B
:100F8000103211800021121D11803F49097841F073
:100F900010013D4A117070E03A49283109883C4AF5
:100FA000118038491031098821F02001354A10326A
:100FB00011803549097801F01001002957D03249D4
:100FC000097801F08001E1B331490988B1F5967FD4
:100FD0000ADD2F490988B1F5487F05DA2D490968EE
:100FE00049002C4A116042E029490988B1F5AF6FE8
:100FF0000FDD27490988B1F5E16F0ADA254909684B
:101000004900244A11601146096841F0010111604C
:101010002DE01F49098840F69802914227DD1C49BE
:10102000098840F62822914221DA1B490978491C97
:10103000194A11701449097801F0F001124A11702F
:1010400015E0FFE71249098841F2680291420EDD7E
:101050000F49098841F25C22914208DA0A4909786D
:1010600041F08001084A117000210B4A11700649B5
:10107000097821F01001044A11700021014A118001
:1010800070470000100C00400000002004012142C5
:10109000020000200400002008000020174880699A
:1010A00040F00800154988611548006820F07F402D
:1010B000134908600846006840F04C500860081D5D
:1010C00000686FF31300091D0860084600680D49A9
:1010D00008430B49091D086001200B4908600B49B2
:1010E000C1F8A40100200849083108600120091D49
:1010F00008600020091D08607047000000100240D1
:10110000000C014033330300A081214200802142C2
:10111000214AD26942F004021F4BDA611F4A126869
:1011200022F07F421D4B1A601A46126842F03B4281
:101130001A601B4A1080121F1180194A143A128833
:1011400042F06002164B143B1A801A46128842F095
:1011500008021A801A46128842F4C0421A801A46BF
:10116000128842F400621A800D4A0C3A128842F04A
:1011700001020B4B0C3B1A801A46128842F01002F7
:101180001A808022064B2C3B1A801A46128842F0A5
:1011900001021A807047000000100240000C01405C
:1011A0002C0800401D49098801F0200111B31B499A
:1011B000091D0988C8B21A49098801F40041C9B952
:1011C0001749098801F4804161B10A2803D0002140
:1011D000134A118020E01249098841F40041104A65
:1011E000118019E00D2806D10D49098841F480418C
:1011F0000B4A118010E00A490988C1F30D01094A20
:10120000505407490988491C054A1180114609882C
:10121000C72901DD0021118070470000003801401E
:10122000BC010020C0010020014600BF7047000043
:101230004FF0E021096921F004014FF0E022116133
:10124000C21700EB5272C2F3C702074B1A7019465D
:10125000097801EB4102C2EBC1114FF6FF7202EABD
:10126000C101024A11807047B4010020B60100207C
:1012700001460D4A12884A434FF0E0235A6100228A
:101280009A6101221A6100BF4FF0E022106900F05C
:1012900001021AB100F48032002AF5D000224FF08A
:1012A000E0231A619A617047B601002000BF054A29
:1012B000128802F04002002AF9D0C2B2014B1B1D75
:1012C0001A807047003801400920FFF711FD4820BF
:1012D000FFF7AEFF4FF41651482000F02BF8FFF750
:1012E00027F9FFF7F9FBFFF7D9FEFFF75BFAFFF7E6
:1012F000EBF8002141F27070FFF70AFF41F61F4141
:101300000A20FFF7D7FD0DE0FFF72EF90648007819
:1013100010B9FFF70DF905E00348017803A0FEF7C7
:101320009BFF00BFF0E70000AE01002025640D0A1E
:10133000000000002DE9F05F05460E46300100F088
:10134000ABF981462E4905FB01F000F0A5F9824674
:10135000494600F0BFF80746384600F07DF984B2F0
:10136000204600F099F98346394600F075FA824626
:101370004FF0834100F0A4F9814600F06DF98046FA
:101380004FF6FF7000EA041404EB080084B21D4815
:10139000806940F004001B4988610846806940F478
:1013A000804088611848006820F47F601649086012
:1013B0000846006840F40B6008601248C06840F4BA
:1013C00080401049C8600846C06820F48040C8606A
:1013D0000E480480001D008842F20C0108430B49AE
:1013E000091D08800846008840F02000088002237C
:1013F000252203210846FFF7BFFABDE8F09F000051
:1014000040420F000010024004080140083801402B
:1014100090EA010F48BF81F0004100F12E82421A8C
:101420003CBF801A89184FEAD0524FF07F4C1CEA1B
:10143000410FA2EBD15318BF9CEA026F00F03B8032
:101440004FF0004C4CEA00204CEA012121FA03FC49
:1014500010EB0C0C1ED202F1FF325FEA1C2040EBB5
:10146000C25038BF70471CF07F0F4FEA400C18BFC6
:10147000BCF17F4F38BF7047C3F12003994008BFCC
:1014800020F00100BCF17F4F38BF7047A0F1C04091
:1014900000F0DDB94FEA3C00000A40EBC25028BF23
:1014A0001CF0FF0F4FEA400CE6D018BFBCF17F4F95
:1014B00038BF7047EAE79CEA026F05D010EA5C0F7C
:1014C00008BF00F00040704710B500F07AF900BF87
:1014D00064FBBE3E4FF47F0C1CEAD0121EBF1CEA18
:1014E000D11392EA0C0F93EA0C0F00F0858090EA7A
:1014F000010F48BF42F4807240F4000C41F4000038
:101500002CF07F4120F07F4000B58142A2EB030226
:101510000FF2081CACEB504EC0F100009EF800E04A
:101520004FEA4E0E00FB0EFC38BF49004FEA2C1C60
:1015300002F5FA020CFB0EF34FEACE1E4FEA112C15
:101540004FEAC1210EEB635E42EB22420EFB0CFC24
:101550004FEA1C5300FB03114FEA112C4FEA0131F3
:101560000EFB0CFC4FEADC4C00FB0C11C14228BF07
:1015700009184CEB03335DF804EB10EB410143EB2E
:10158000C250B2F57C0F38BF704729D512F0F00F6A
:101590001CBF00F1C04000F0004070470081828312
:1015A0008485868788898B8C8D8E8F919293959672
:1015B00097999A9C9D9FA0A2A3A5A7A8AAACAEB0FC
:1015C000B2B3B5B7B9BCBEC0C2C5C7C9CCCED1D401
:1015D000D7D9DCDFE2E6E9ECF0F3F7FAFE00000031
:1015E0004FEA400C0CF1807CBCF17E4F28BF704765
:1015F000B0F1C04000F02BB990EA010F0CEAD11312
:1016000048BF42F48072624538BF634507D213F485
:101610007F0F16D080EA010000F00040704710B53F
:1016200000F0CFF8097EFC3E00F005B880EA01002A
:1016300000F00040704780EA010000F0004000F038
:1016400006B912F47F0F04BF0248704780EA010018
:1016500000F0FDB80000C07FC10DD1F19E0206DB95
:101660004FEA002343F0004323FA02F070470042A0
:1016700007D54FEA4001B1F1FE4F02D24FF0000012
:10168000704710B500F09DF8499224800020704703
:101690006FEA200070470000B0FA80F310FA03F2FE
:1016A000C3F19D030AD0D90501EB1220530638BFC0
:1016B000704700F1010008BF20F0010070470000F2
:1016C0004FF47F0C1CEAD0121EBF1CEAD11392EA21
:1016D0000C0F93EA0C0F00F0478090EA010F48BF0F
:1016E00042F480724FF0004C4CEA00204CEA012199
:1016F00002EB0302A0FB0113A2F50002002918BFB0
:1017000043F001035B0028BF4FEA330342EB224260
:101710005FEA132C4CEBC2502EBFBCEB436FB2F50B
:101720007C0F70474FEA036CBCF1004F08BF20F0FC
:101730000100B2F57C0F38BF70470BD582F0FF0275
:1017400012F5803FC8BF704700F1C040D8BF00F01D
:101750000040704700F5000C5FEA4C0C48BF704732
:10176000B0F1C04000F073B890EA010F0CEAD11359
:1017700048BF42F48072624538BF634504D280EAB4
:10178000010000F00040704710B500F01AF800BFEB
:101790008900013E00F007B800F009B85FEA410C8B
:1017A0005FEA1C6C08D080EA010000F050B85FEAE4
:1017B000400C5FEA1C6CF6D14FF00040A0F58000B1
:1017C00070470EF1020E2EF0030E5EF8044B244219
:1017D00004D44FEA4102B2F17F4F11D84FEA4003DF
:1017E000B3F17F4F0CD80ED14FEAD07CB2F17F4FCE
:1017F0000CEB4C0C0CF1020C08BF4CEBD17C04E060
:101800004FF0080C01E04FEAD17C0CEB4C0324FABA
:1018100003F404F00704B4F1040C06D20EEB840CBC
:10182000BDE810404CF0010C6047DFE80CF0070801
:1018300002024FF00040A0F5800010BD08464200B3
:1018400018BFD2F1807288BF00F0004010BDFF21A8
:1018500041EAD050C005704780F0004090EA010F87
:101860007FF5DDAD81F0004100F007B890EA010F8F
:1018700048BF81F000413FF5D2AD421A04D882F052
:101880000042A0EB020011444FEAD0524FF07F4CCF
:101890001CEA410FA2EBD15318BF9CEA026F4AD059
:1018A0004FF0004C4CEA00204CEA012121FA03FCE5
:1018B000B0EB0C0C0FD412F0FE0F36D05FEA4C00E8
:1018C0001DD5001240EBC25038BF70471CF03F0FCF
:1018D00018BF70470BE0A2F101025FEA1C2040EB49
:1018E000C25038BF70471CF07F0F18BF7047C3F15C
:1018F0002003994014BF401E20F00100704780086B
:101900004FEA122308BF7047B0FA80FCA2EB0C022A
:10191000CCF1280C60FA0CF093EA122F04BF00EB14
:10192000C25070474FEAC3707047130A5FEADC1079
:1019300008BF7047F6E79CEA026F04D010EA5C0F1C
:1019400008BF0020704710B5FFF73BFF40DFF63EB1
:1019500081F0004070470000781900080000002066
:10196000C00100006C010008E0190008C00100205F
:1019700028070000C8010008C132033204320532D2
:101980000632073208320D320E5A09102918292062
:10199000419A013832FF32E35ADF0432E75AFB043E
:1019A0000223C7293032DB32BD5A180C69045AC3EE
:1019B00004A9142924292C290C293C32EF32CF32D6
:1019C000B05A7E04290C2914291C32F75AF3E06915
:1019D00020290C2914291C29C0099A04011400008B
:0400000508000131BD
:00000001FF
