:020000040800F2
:1000000040070020D5010008DD010008DF010008DD
:10001000E1010008E3010008E5010008000000001C
:10002000000000000000000000000000E7010008E0
:10003000E901000800000000EB010008ED010008E4
:10004000EF010008EF010008EF010008EF010008D0
:10005000EF010008EF010008EF010008EF010008C0
:10006000EF010008EF010008EF010008EF010008B0
:10007000EF010008EF010008EF010008EF010008A0
:10008000EF010008EF010008EF010008EF01000890
:10009000EF010008EF010008EF010008EF01000880
:1000A000EF010008EF010008EF010008EF01000870
:1000B000EF010008EF010008EF010008EF01000860
:1000C000EF010008EF010008EF010008EF01000850
:1000D000EF010008C10A0008EF010008EF01000865
:1000E000EF010008EF010008EF010008EF01000830
:1000F000EF010008EF010008EF010008EF01000820
:10010000EF010008EF01000829090008EF010008CD
:10011000EF010008EF010008EF010008EF010008FF
:10012000EF010008EF010008EF010008EF010008EF
:1001300000F002F800F03FF80AA090E8000C8244BA
:100140008344AAF10107DA4501D100F034F8AFF297
:10015000090EBAE80F0013F0010F18BFFB1A43F0A5
:1001600001031847AC100000CC100000103A24BF67
:1001700078C878C1FAD8520724BF30C830C144BF0C
:1001800004680C607047000000230024002500264E
:10019000103A28BF78C1FBD8520728BF30C148BFEA
:1001A0000B607047642900F07780002070471FB50E
:1001B0001FBD10B510BD00F037F91146FFF7F7FF6E
:1001C00000F0F2FC00F055F903B4FFF7F2FF03BCB6
:1001D00000F0B8FC0948804709480047FEE7FEE701
:1001E000FEE7FEE7FEE7FEE7FEE7FEE7FEE7FEE7E7
:1001F00004480549054A064B70470000C908000835
:100200003101000840010020400700204003002089
:1002100040030020704700000FB4044910B503AA42
:10022000029800F0D3F810BC5DF814FB1000002019
:100230002DE9F0410E460446002020622046E16888
:10024000884730B3252805D0D4E901219047206A9A
:10025000401CF2E7E168204600278847050018D0D7
:10026000A5F14100192802D820354FF40067324625
:10027000294620462760FFF795FF40B1012804D0AA
:10028000F61D26F007060836D8E7361DD6E72846BD
:10029000DAE7206ABDE8F0812DE9F0410646002446
:1002A00010687529314616A510D0AFF300800028DC
:1002B00002DA404213A507E031688A0701D512A58A
:1002C00002E0490704D511A5012401E0AFF3008045
:1002D00000210A2206F1240709E0B0FBF2FCB0FB82
:1002E000F2F302FB1C00303078541846491C0028F9
:1002F000F3D123462A463046BDE8F04100F00CB861
:10030000000000002D0000002B0000002000000075
:1003100070477047704770472DE9F0470D46994682
:100320009246044600F124080168880604D5E06975
:1003300021F01001216000E00120A84201DD471BEF
:1003400000E00027A1697A1902EB0900081AA061F0
:100350002078C00602D42046AFF30080002608E0D3
:10036000D4E901211AF806009047206A401C761C47
:1003700020624E45F4DB2078C0060AD52046AFF354
:10038000008006E0D4E9012130209047206A401C1B
:100390002062381EA7F10107F4DC07E0D4E901214F
:1003A00018F805009047206A401C2062281EA5F11D
:1003B0000105F3DC2046AFF300802078000602D56B
:1003C0000220BDE8F0870120FBE70000074B70B575
:1003D0000D467B4400F011F80446284600F020F852
:1003E00010B14FF0FF3070BD204670BDB707000060
:1003F00001694A1C02610878704700B58FB0CDE9E9
:1004000001310021059105497944CDE903101146D8
:100410006846FFF70DFF0FB000BD0000E5FFFFFFCE
:10042000007B00F080007047754600F029F8AE466A
:1004300005006946534620F00700854618B020B5F0
:10044000FFF7D6FEBDE820404FF000064FF0000752
:100450004FF000084FF0000B21F00701AC46ACE86C
:10046000C009ACE8C009ACE8C009ACE8C0098D46D9
:1004700070470446AFF300802046FFF7A5FE00005A
:1004800000487047E000002010B500F02DF91C492D
:1004900048700846407800B910BD1948407868286F
:1004A00016D006DC182823D030281DD0422823D1AE
:1004B0000AE0982810D0A22802D0B0281CD10FE062
:1004C00000200F49087017E001200D49087013E063
:1004D00002200B4908700FE00320094908700BE067
:1004E00004200749087007E005200549087003E06B
:1004F00006200349087000BF00BF00BFCCE7000022
:100500000900002000B5002015490861C8601420CA
:10051000486100208861C8610846006840F0010019
:100520000860084640680F4908400D494860084681
:1005300000680D4908400A4908600846006820F430
:10054000802008600846406820F4FE0048600020D3
:10055000886000214FF0006000F058F800BD0000F6
:10056000001002400000FFF8FFFFF6FE2DE9F04109
:100570000746884614461D46284600F033F8C5F164
:10058000040007FA00F60F20284100EA080006439D
:1005900006F00F06E21704EBD2625211920002F14C
:1005A000E022D2F800212146E31704EBD3635B116C
:1005B000A4EB431C012303FA0CF31A432046E31770
:1005C00004EBD3635B119B0003F1E023C3F800212C
:1005D0000348005D40EA061001490855BDE8F08176
:1005E00000E400E00146072323EA01021202054B62
:1005F00018684FF6FF031840034B18431043014B94
:10060000186070470CED00E00000FA05024A0A404D
:100610000243024B1A60704780FFFF1F08ED00E0A5
:1006200010B52E48C06940F008002C49C861084642
:10063000806940F0040088612948006820F0F000DB
:10064000274908600846006840F080000860244898
:100650000C30006840F0020021490C31086042F281
:100660001070204908804720091F08801D48143851
:10067000008840F480701B491439088008460088BF
:1006800040F44050088008460088088015480C381F
:10069000008814490C3908800846008840F0100092
:1006A000088010482038008840F004000D492039A7
:1006B00008800846008840F00100088009482C386E
:1006C000008840F0010007492C39088002233222BB
:1006D00003210120FFF74AFF10BD00000010024077
:1006E000000801402C0C004010B50020154B1B7871
:1006F00003F0400323B3144B1B68190E124B1B6805
:10070000C3F30742D343DBB28B420AD10E4B1B88A3
:10071000C3F307210C4B1A78D343DBB28B4200D1D1
:10072000084620B1074B1B7803F0800343B9054B03
:100730001B7823F04003034C23700023034C2370E9
:1007400010BD000000000020040000200800002070
:1007500010B500F001F810BD0CB50020019000901C
:100760003348006840F480303149086000BF3048A9
:10077000006800F4003000900198401C019000983F
:1007800018B90198B0F5A06FF1D12948006800F4BC
:10079000003010B10120009001E00020009000988E
:1007A000012843D12348006840F010002149086027
:1007B0000846006820F0030008600846006840F022
:1007C000020008601A4840681949486008464068B5
:1007D00048600846406840F48060486008464068C9
:1007E00020F47C1048600846406840F4E8104860F7
:1007F0000846006840F08070086000BF0C48006840
:1008000000F000700028F9D00948406820F003008B
:10081000074948600846406840F00200486000BF51
:100820000348406800F00C000828F9D10CBD000016
:10083000001002400020024030B504460025FFF7BA
:1008400061FE1F48006840F480301D49086000BF09
:100850001B480068400C0028FAD04FF4806018490B
:100860004860A01EC4B20846406840EA8440486020
:100870000846406840F4803048601248006840F004
:100880003200104908600E48006840F080700C4942
:10089000086000BF0A480068400E0028FAD00848E7
:1008A000406840F002000649486005E0044840689E
:1008B000C0F3870505F00305022DF7D130BD000018
:1008C000001002400020024010B51348006840F0BC
:1008D00001001149086008464068104908400E4967
:1008E0004860084600680E4908400B490860084601
:1008F000006820F4802008600846406820F4FE006C
:1009000048604FF41F008860FFF722FF4FF000603F
:100910000449086010BD0000001002400000FFF80C
:10092000FFFFF6FE08ED00E05F49088800F00101D6
:10093000F9B15E49097801F08001D1B15B490978CC
:1009400021F01001594A11701146097801F00F0188
:1009500021B91146097841F04001117053490978D5
:1009600001F00F010E2905DA50490978491C4F4A58
:1009700011700AE04D49097821F080014B4A11704D
:100980001146097801F0F001117000F0040100290E
:1009900013D04749096889B143491031098841F0AA
:1009A0002001414A103211800021121D11803F495F
:1009B000097841F010013D4A117070E03A49283140
:1009C00009883C4A118038491031098821F02001FA
:1009D000354A103211803549097801F0100100299B
:1009E00057D03249097801F08001E1B331490988D3
:1009F000B1F5967F0ADD2F490988B1F5487F05DA00
:100A00002D49096849002C4A116042E029490988AA
:100A1000B1F5AF6F0FDD27490988B1F5E16F0ADA4B
:100A2000254909684900244A11601146096841F0C6
:100A3000010111602DE01F49098840F6980291429A
:100A400027DD1C49098840F62822914221DA1B49FA
:100A50000978491C194A11701449097801F0F0010C
:100A6000124A117015E0FFE71249098841F2680245
:100A700091420EDD0F49098841F25C22914208DA69
:100A80000A49097841F08001084A117000210B4A97
:100A900011700649097821F01001044A11700021F3
:100AA000014A118070470000100C00400000002037
:100AB0000401214202000020040000200800002060
:100AC0001D49098801F0200111B31B49091D09883E
:100AD000C8B21A49098801F40041C9B917490988FF
:100AE00001F4804161B10A2803D00021134A11802A
:100AF00020E01249098841F40041104A118019E0B0
:100B00000D2806D10D49098841F480410B4A118016
:100B100010E00A490988C1F30D01094A50540749F8
:100B20000988491C054A118011460988C72901DD39
:100B3000002111807047000000380140140000209F
:100B400018000020014600BF704700004FF0E02170
:100B5000096921F004014FF0E0221161C21700EB96
:100B60005272C2F3C702074B1A701946097801EB9B
:100B70004102C2EBC1114FF6FF7202EAC101024A03
:100B8000118070470C0000200E00002000BF054AB5
:100B9000128802F04002002AF9D0C2B2014B1B1D9C
:100BA0001A807047003801400920FFF745FE4820B1
:100BB000FFF7CCFF4FF41651482000F017F8FFF76D
:100BC0002FFD0BE0FFF760FC0548007800B905E059
:100BD0000348017803A0FFF71FFB00BFF2E7000006
:100BE0000900002025640D0A000000002DE9F05FD7
:100BF00005460E46300100F0ABF981462E4905FB53
:100C000001F000F0A5F98246494600F0BFF807461A
:100C1000384600F07DF984B2204600F099F9834609
:100C2000394600F075FA82464FF0834100F0A4F98E
:100C3000814600F06DF980464FF6FF7000EA04141B
:100C400004EB080084B21D48806940F004001B4991
:100C500088610846806940F48040886118480068CF
:100C600020F47F60164908600846006840F40B6075
:100C700008601248C06840F480401049C8600846C7
:100C8000C06820F48040C8600E480480001D0088C1
:100C900042F20C0108430B49091D088008460088F0
:100CA00040F0200008800223252203210846FFF798
:100CB0005DFCBDE8F09F000040420F0000100240C4
:100CC000040801400838014090EA010F48BF81F054
:100CD000004100F12E82421A3CBF801A89184FEA67
:100CE000D0524FF07F4C1CEA410FA2EBD15318BFFA
:100CF0009CEA026F00F03B804FF0004C4CEA002071
:100D00004CEA012121FA03FC10EB0C0C1ED202F17B
:100D1000FF325FEA1C2040EBC25038BF70471CF026
:100D20007F0F4FEA400C18BFBCF17F4F38BF7047B0
:100D3000C3F12003994008BF20F00100BCF17F4FB0
:100D400038BF7047A0F1C04000F0DDB94FEA3C0069
:100D5000000A40EBC25028BF1CF0FF0F4FEA400CC6
:100D6000E6D018BFBCF17F4F38BF7047EAE79CEA76
:100D7000026F05D010EA5C0F08BF00F0004070471A
:100D800010B500F07AF900BF64FBBE3E4FF47F0C53
:100D90001CEAD0121EBF1CEAD11392EA0C0F93EA90
:100DA0000C0F00F0858090EA010F48BF42F480727A
:100DB00040F4000C41F400002CF07F4120F07F4013
:100DC00000B58142A2EB03020FF2081CACEB504EBF
:100DD000C0F100009EF800E04FEA4E0E00FB0EFC52
:100DE00038BF49004FEA2C1C02F5FA020CFB0EF347
:100DF0004FEACE1E4FEA112C4FEAC1210EEB635E83
:100E000042EB22420EFB0CFC4FEA1C5300FB031189
:100E10004FEA112C4FEA01310EFB0CFC4FEADC4C7F
:100E200000FB0C11C14228BF09184CEB03335DF8DD
:100E300004EB10EB410143EBC250B2F57C0F38BF1D
:100E4000704729D512F0F00F1CBF00F1C04000F030
:100E500000407047008182838485868788898B8CD7
:100E60008D8E8F919293959697999A9C9D9FA0A213
:100E7000A3A5A7A8AAACAEB0B2B3B5B7B9BCBEC063
:100E8000C2C5C7C9CCCED1D4D7D9DCDFE2E6E9EC04
:100E9000F0F3F7FAFE0000004FEA400C0CF1807C02
:100EA000BCF17E4F28BF7047B0F1C04000F02BB9B5
:100EB00090EA010F0CEAD11348BF42F480726245F8
:100EC00038BF634507D213F47F0F16D080EA0100C4
:100ED00000F00040704710B500F0CFF8097EFC3EEE
:100EE00000F005B880EA010000F00040704780EA99
:100EF000010000F0004000F006B912F47F0F04BFBB
:100F00000248704780EA010000F0FDB80000C07F91
:100F1000C10DD1F19E0206DB4FEA002343F00043EE
:100F200023FA02F07047004207D54FEA4001B1F1C1
:100F3000FE4F02D24FF00000704710B500F09DF850
:100F400049922480002070476FEA2000704700001B
:100F5000B0FA80F310FA03F2C3F19D030AD0D90569
:100F600001EB1220530638BF704700F1010008BFA3
:100F700020F00100704700004FF47F0C1CEAD012F3
:100F80001EBF1CEAD11392EA0C0F93EA0C0F00F07B
:100F9000478090EA010F48BF42F480724FF0004C46
:100FA0004CEA00204CEA012102EB0302A0FB0113F2
:100FB000A2F50002002918BF43F001035B0028BF1F
:100FC0004FEA330342EB22425FEA132C4CEBC25050
:100FD0002EBFBCEB436FB2F57C0F70474FEA036C3A
:100FE000BCF1004F08BF20F00100B2F57C0F38BF04
:100FF00070470BD582F0FF0212F5803FC8BF7047E3
:1010000000F1C040D8BF00F00040704700F5000C70
:101010005FEA4C0C48BF7047B0F1C04000F073B8B5
:1010200090EA010F0CEAD11348BF42F48072624586
:1010300038BF634504D280EA010000F000407047E9
:1010400010B500F01AF800BF8900013E00F007B8A3
:1010500000F009B85FEA410C5FEA1C6C08D080EA36
:10106000010000F050B85FEA400C5FEA1C6CF6D15A
:101070004FF00040A0F5800070470EF1020E2EF0F8
:10108000030E5EF8044B244204D44FEA4102B2F14D
:101090007F4F11D84FEA4003B3F17F4F0CD80ED1E8
:1010A0004FEAD07CB2F17F4F0CEB4C0C0CF1020CF0
:1010B00008BF4CEBD17C04E04FF0080C01E04FEA94
:1010C000D17C0CEB4C0324FA03F404F00704B4F1D4
:1010D000040C06D20EEB840CBDE810404CF0010C61
:1010E0006047DFE80CF0070802024FF00040A0F56F
:1010F000800010BD0846420018BFD2F1807288BF40
:1011000000F0004010BDFF2141EAD050C0057047FB
:1011100080F0004090EA010F7FF5DDAD81F00041E5
:1011200000F007B890EA010F48BF81F000413FF599
:10113000D2AD421A04D882F00042A0EB0200114462
:101140004FEAD0524FF07F4C1CEA410FA2EBD15333
:1011500018BF9CEA026F4AD04FF0004C4CEA0020C6
:101160004CEA012121FA03FCB0EB0C0C0FD412F075
:10117000FE0F36D05FEA4C001DD5001240EBC25086
:1011800038BF70471CF03F0F18BF70470BE0A2F14B
:1011900001025FEA1C2040EBC25038BF70471CF0D0
:1011A0007F0F18BF7047C3F12003994014BF401E42
:1011B00020F00100704780084FEA122308BF7047F3
:1011C000B0FA80FCA2EB0C02CCF1280C60FA0CF017
:1011D00093EA122F04BF00EBC25070474FEAC3706E
:1011E0007047130A5FEADC1008BF7047F6E79CEA15
:1011F000026F04D010EA5C0F08BF0020704710B5E2
:10120000FFF73BFF40DFF63E81F0004070470000F3
:101210003012000800000020180000006C010008D7
:101220004812000818000020280700008801000864
:1012300000000000000000000000000000000000AE
:081240000000000000000000A6
:0400000508000131BD
:00000001FF
